:020000040000FA
:100000000C9447050C946F050C946F050C946F05C8
:100010000C946F050C946F050C946F050C9493165B
:100020000C946F050C946F050C946F050C946F0580
:100030000C946F050C946F050C946F050C946F0570
:100040000C9449160C946F050C9415170C94EF162C
:100050000C946F050C946F050C946F050C946F0550
:100060000C9447170C946F0500000000003E5B4F96
:100070005B3E3E6B4F6B3E1C3E7C3E1C183C7E3C08
:10008000181C577D571C1C5E7F5E1C00183C180016
:10009000FFE7C3E7FF0018241800FFE7DBE7FF30A6
:1000A000483A060E2629792926407F050507407F14
:1000B00005253F5A3CE73C5A7F3E1C1C08081C1C87
:1000C0003E7F14227F22145F5F005F5F06097F017D
:1000D0007F006689956A606060606094A2FFA29468
:1000E00008047E040810207E201008082A1C080836
:1000F0001C2A08081E101010100C1E0C1E0C303884
:100100003E3830060E3E0E06000000000000005F84
:1001100000000007000700147F147F14242A7F2AA0
:100120001223130864623649562050000807030062
:10013000001C2241000041221C002A1C7F1C2A08AE
:10014000083E080800807030000808080808000011
:1001500060600020100804023E5149453E00427F85
:10016000400072494949462141494D331814127FD4
:100170001027454545393C4A494931412111090774
:100180003649494936464949291E000014000000F5
:1001900040340000000814224114141414140041C7
:1001A00022140802015909063E415D594E7C121184
:1001B000127C7F494949363E414141227F414141BC
:1001C0003E7F494949417F090909013E4141517337
:1001D0007F0808087F00417F41002040413F017FA8
:1001E000081422417F404040407F021C027F7F0470
:1001F00008107F3E4141413E7F090909063E4151B9
:10020000215E7F09192946264949493203017F01A8
:10021000033F4040403F1F2040201F3F4038403FA9
:10022000631408146303047804036159494D4300BF
:100230007F4141410204081020004141417F0402F6
:10024000010204404040404000030708002054548D
:1002500078407F284444383844444428384444286B
:100260007F385454541800087E090218A4A49C78BE
:100270007F0804047800447D40002040403D007F1A
:100280001028440000417F40007C047804787C08FA
:100290000404783844444438FC18242418182424CE
:1002A00018FC7C08040408485454542404043F44B3
:1002B000243C4040207C1C2040201C3C4030403CE2
:1002C00044281028444C9090907C4464544C440042
:1002D00008364100000077000000413608000201A6
:1002E0000204023C2623263C1EA1A161123A404092
:1002F000207A38545455592155557941225454780F
:1003000042215554784020545579400C1E527212A7
:100310003955555559395454545939555454580030
:1003200000457C410002457D420001457C407D1234
:1003300011127DF0282528F07C5455450020545496
:100340007C547C0A097F4932494949323A44444441
:100350003A324A4848303A4141217A3A424020787C
:10036000009DA0A07D3D4242423D3D4040403D3C7D
:1003700024FF2424487E4943662B2FFC2F2BFF09A2
:1003800029F620C0887E0903205454794100004496
:100390007D413048484A32384040227A007A0A0A81
:1003A000727D0D19317D2629292F282629292926F4
:1003B00030484D4020380808080808080808382F39
:1003C00010C8ACBA2F102834FA00007B00000814C3
:1003D0002A142222142A14085500550055AA55AA99
:1003E00055AAFF55FF55FF000000FF00101010FF39
:1003F00000141414FF001010FF00FF1010F010F094
:10040000141414FC001414F700FF0000FF00FF1484
:1004100014F404FC141417101F10101F101F1414D0
:10042000141F00101010F0000000001F101010101A
:100430001F10101010F010000000FF10101010100E
:1004400010101010FF10000000FF140000FF00FF4C
:1004500000001F10170000FC04F4141417101714E8
:1004600014F404F40000FF00F7141414141414140A
:10047000F700F7141414171410101F101F1414147D
:10048000F4141010F010F000001F101F0000001FE7
:1004900014000000FC140000F010F01010FF10FF1A
:1004A000141414FF141010101F00000000F010FFAF
:1004B000FFFFFFFFF0F0F0F0F0FFFFFF0000000093
:1004C00000FFFF0F0F0F0F0F3844443844FC4A4A17
:1004D0004A347E02020606027E027E0263554941CC
:1004E000633844443C04407E201E2006027E020203
:1004F00099A5E7A5991C2A492A1C4C7201724C3017
:100500004A4D4D303048784830BC625A463D3E49ED
:100510004949007E0101017E2A2A2A2A2A44445F91
:10052000444440514A444040444A51400000FF0185
:1005300003E080FF000008086B6B08361236243693
:10054000060F090F060000181800000010100030F8
:1005500040FF0101001F01011E00191D1712003C80
:100560003C3C3C0000000000000103070F1F3F7FE0
:100570000080C0E0F0F8FCFEDB40A4A62EAF200017
:10058000A1C8D300408DAED580A800006000000057
:100590000000000000000000000000E0000000007B
:1005A00000000000000000000001E000000000006A
:1005B000000000000000000001F00000000000004A
:1005C0000000000000000003F00000000000000038
:1005D00000000000000007F0000000000000000024
:1005E000000000000007F80000000000000000000C
:1005F000000000000FF800000003C0007E000001B2
:10060000E0007F0FF800000003C000FE000001E0E2
:1006100000FFEFF800000003C000FE000001E00052
:10062000FFFFF800000003C000F00000000F007F93
:10063000FE7FC0000003C000F00000000F003FFE7E
:100640007FF83FF1FBCFFCFEF3BC3DEFE01FFE7FE8
:10065000FF7FFBFFDFFEFEFFBC3DEFE01FC6FFFF9D
:100660007FFBFFDFFEFEFFBC3DEFE00FE3C7FE7840
:100670007BC3DE1EF0FFBC3DEF0007FF87FC787BED
:10068000C3DE1EF0F83C3DEF0001FFFFF0007BC32E
:10069000C01EF0F03C3DEF0001F37FE03FFBC3CF15
:1006A000FEF0F03C3DEF0003E33F807FFBC3DFFE45
:1006B000F0F03C3DEF0007E73C00787BC3DE1EF026
:1006C000F03C3DEF0007FFBE00787BC3DE1EF0F07C
:1006D0003C3DEF0007FFFE00787BC3DE1EF0F03CE0
:1006E0003DEF000FFFFE007FFBFFDFFEF0F03FFD60
:1006F000EFE00FFFFF007FFBFFDFFEF0F03FFDEFBD
:10070000E00FF9FF003E79F9CF9EF0F01F3DE7E0E2
:100710001FF1FF0000000000000000000000001FAB
:1007200080FF007FFFFFFFFFFFFFFFFFFFE01C00D8
:100730007F007FFFFFFFFEB46D888D18E000001F73
:10074000007FFFFFFFFE95AD7DB577E000000F0055
:100750007FFFFFFFFEA5AD9D8D19E0000006007F25
:10076000FFFFFFFEB5ADEDB57EE00000000000012B
:100770008000000000000000000003800000000076
:10078000000000000007C0000000000000000000A2
:1007900007C00000000000000000000FC0000000C3
:1007A0000000000000001FE000000000000000004A
:1007B000001FE00000000000000000003FE000001B
:1007C000000000000000003FF000000000000000FA
:1007D00000007FF0000000000000001FF87FF00024
:1007E0000000000000003FFE7FF00000000000005D
:1007F000003FFF7FF0000000000000001FFFFBE053
:10080000000000000000000FFFF9FFC00000000022
:1008100000000FFFF9FFF800000000000007FFF1E3
:10082000FFFF00000000000003FC73FFFF800000DA
:1008300000000001FE3FFFFF80000000000000FFFD
:100840001E0FFF000000000000007FFE1FFC0000E4
:1008500000000000003FFFFFF80000000000000063
:100860000FDFFFE0000000000000001F19FFC000C4
:100870000000000000003F3CFF00000000000000FE
:10088000007E7CF800000000000000007FFE7C007D
:1008900000000000000000FFFFFC0000000000005E
:1008A0000000FFFFFE0000000000000000FFFFFE50
:1008B0000000000000000001FFEFFE00000000004B
:1008C000000001FFCFFE0000000000000003FF0752
:1008D000FE0000000000000003FC07FE0000000016
:1008E00000000003F003FE00000000000000018093
:1008F00000FE000000000000000000007E0000007C
:10090000000000000000003E0000000000000000A9
:1009100000000C000000000000078000FC00000345
:10092000C0000000078001FC000003C000000007B9
:100930008001FC000003C0000000078001E000000F
:10094000001E000000078001E00000001E007FE3A1
:10095000F79FF9FDE7787BDFC0FFF7FFBFFDFDFFE5
:10096000787BDFC0FFF7FFBFFDFDFF787BDFC0F0C6
:10097000F787BC3DE1FF787BDE00F0F787BC3DE107
:10098000F0787BDE0000F787803DE1E0787BDE00D9
:100990007FF7879FFDE1E0787BDE00FFF787BFFDF3
:1009A000E1E0787BDE00F0F787BC3DE1E0787BDEBC
:1009B00000F0F787BC3DE1E0787BDE00F0F787BC14
:1009C0003DE1E0787BDE00FFF7FFBFFDE1E07FFB6C
:1009D000DFC0FFF7FFBFFDE1E07FFBDFC07CF3F38B
:1009E0009F3DE1E03E7BCFC0000000000000000022
:1009F000000000FFFFFFFFFFFFFFFFFFFFC0FFFF43
:100A0000FFFFFD68DB111A31C0FFFFFFFFFD2B5A0E
:100A1000FB6AEFC0FFFFFFFFFD4B5B3B1A33C0FFDC
:100A2000FFFFFFFD6B5BDB6AFDC0022200FF2100C0
:100A3000000000240027002A0000000000250028F4
:100A4000002B000000000800020100000304070062
:100A50000000000000000000000000230026002924
:100A60000004040404040404040202020202020357
:100A70000303030303010204081020408001020461
:100A80000810200102040810200066184A201124D2
:100A90001FBECFEFD8E0DEBFCDBF11E0A0E0B1E0D8
:100AA000E0E6F8E402C005900D92A23CB107D9F748
:100AB00023E0A2ECB1E001C01D92A739B207E1F733
:100AC00015E0C6E4D5E004C02197FE010E94EC22A7
:100AD000C534D107C9F70E9409190C9423240C943A
:100AE00000000895CF92DF92EF92FF92CF93DF93B1
:100AF000B0913B03A0E08111AB2F80913C0390E0CB
:100B0000880F991FAC01495A554FC0904103D090AE
:100B10004203E0904303F090440330E020E0FA0108
:100B2000C591D491E881B90190E080E0EB23EA130C
:100B30000AC02F5F3F4F6C157D058E059F0578F32A
:100B40006FEF7FEFCB01DF91CF91FF90EF90DF90C0
:100B5000CF90089590E0FC01ED5BF54F2491FC01EE
:100B6000EB58F54F3491FC01EF59F54FE491EE232A
:100B7000C9F0222339F0233001F1A8F4213019F112
:100B8000223029F1F0E0EE0FFF1FE75CF54FA59151
:100B9000B4918FB7F894EC91611126C030953E2343
:100BA0003C938FBF08952730A9F02830C9F0243036
:100BB00049F7809180008F7D03C0809180008F77FE
:100BC00080938000DFCF84B58F7784BDDBCF84B581
:100BD0008F7DFBCF8091B0008F778093B000D2CF14
:100BE0008091B0008F7DF9CF3E2BDACFCF93DF938A
:100BF00090E0FC01EB58F54F24918F59954FFC0183
:100C000084918823D1F090E0880F991FFC01E15D69
:100C1000F54FA591B491FC01E75CF54FC591D491D6
:100C2000623071F49FB7F8943C91822F80958323B2
:100C30008C93E8812E2B28839FBFDF91CF9108955D
:100C40008FB7F894EC912E2B2C938FBFF6CF8E504C
:100C5000806480937C0080917A00806480937A0025
:100C600080917A0086FDFCCF809178009091790088
:100C700008953FB7F89480918B0290918C02A091D7
:100C80008D02B0918E0226B5A89B05C02F3F19F0AA
:100C90000196A11DB11D3FBFBA2FA92F982F8827FC
:100CA000BC01CD01620F711D811D911D42E0660FD7
:100CB000771F881F991F4A95D1F708958F929F92A9
:100CC000AF92BF92CF92DF92EF92FF924B015C0105
:100CD0000E9439066B017C010E9439066C197D095E
:100CE0008E099F09683E734081059105A8F321E0B4
:100CF000821A9108A108B10888EEC80E83E0D81EB8
:100D0000E11CF11C81149104A104B10429F7FF90A6
:100D1000EF90DF90CF90BF90AF909F908F9008950D
:100D2000CF92DF92EF92FF920F931F93CF93DF93B7
:100D3000CDB7DEB7C054D1400FB6F894DEBF0FBEBA
:100D4000CDBF2FB7F89480918F0290919002A0911F
:100D50009102B09192022FBF40913D0350913E030A
:100D600060913F03709140038C019D01041B150BA2
:100D7000260B370BB901A801403D574061057105AD
:100D800090F480914503C05CDE4F0FB6F894DEBF4F
:100D90000FBECDBFDF91CF911F910F91FF90EF90CC
:100DA000DF90CF90089580933D0390933E03A093EE
:100DB0003F03B09340031092380310923703109210
:100DC0003603109235031092340362E080913903A8
:100DD0000E94F60561E070E080E090E00E945E060F
:100DE00061E0809139030E94F60560E0809139034B
:100DF0000E94AA0580913A038551823020F58BE24A
:100E000091E10197F1F762E0809139030E94F605C4
:100E10008091460390E08230910538F0880F991F49
:100E2000880F991F05970197F1F7F89480E00E94C9
:100E300072056F3F7F4F8F4F9F4F61F410924503B4
:100E4000789480E0A0CF64E170E080E090E00E94C0
:100E50005E06D9CF81E00E9472056F3F7F4F8F4FB2
:100E60009F4F61F38E010F5F1F4F6E018FEBC81A0A
:100E70008EEFD80A780180E00E947205F701608346
:100E800071838283938381E00E947205F7016483FA
:100E9000758386839783F8E0EF0EF11CEC14FD0454
:100EA00051F7789430E020E0F801C080D180E280F2
:100EB000F3804481558166817781FFEFCF16DF068D
:100EC000EF06FF0631F04F3F8FEF580768077807AE
:100ED00019F410924503B5CFF90183E0F595E79534
:100EE0008A95E1F7EC5CFC4F8081880FC416D5062B
:100EF000E606F70610F180832F5F3F4F085F1F4F14
:100F00002832310589F640913803209134038091CD
:100F10003503280F3327331F80913603280F311DE7
:100F200080913703820F932F911D99274817190637
:100F300081F681E08093450326CF8160DCCF089560
:100F400008959091000189130BC0EAE2FAE0E49160
:100F50009FEF90930001E13049F028F0E23061F01A
:100F600060E00C94AA0510926E00FACF90916F0089
:100F70009D7F90936F00F4CF909170009D7F909330
:100F8000700091E09093B0009091B100987F9460D0
:100F90009093B1001092B300E3CFDC01ED91FC918E
:100FA0000190F081E02D0994AF92BF92CF92DF9231
:100FB000EF92FF920F931F93CF93DF936C017B010E
:100FC0008B01040F151FEB015E01AE18BF08C0179F
:100FD000D10759F06991D601ED91FC910190F08112
:100FE000E02DC6010995892B79F7C501DF91CF91D5
:100FF0001F910F91FF90EF90DF90CF90BF90AF9037
:101000000895FC01538D448D252F30E0842F90E00E
:10101000821B930B541710F0CF96089501970895F3
:10102000FC01918D828D981761F0A28DAE0FBF2FBC
:10103000B11D5D968C91928D9F5F9F73928F90E012
:1010400008958FEF9FEF0895FC01918D828D981781
:1010500031F0828DE80FF11D858D90E008958FEFBE
:101060009FEF0895FC01918D228D892F90E0805C87
:101070009F4F821B91098F739927089587E992E00A
:101080000E94320821E0892B09F420E0822F089584
:1010900080E090E0892B29F00E943E0881110C9499
:1010A00000000895FC01A48DA80FB92FB11DA35A0B
:1010B000BF4F2C91848D90E001968F739927848F78
:1010C000A689B7892C93A089B1898C91837080649B
:1010D0008C93938D848D981306C00288F389E02D3C
:1010E00080818F7D80830895EF92FF920F931F93ED
:1010F000CF93DF93EC0181E0888F9B8D8C8D9813CB
:101100001AC0E889F989808185FF15C09FB7F894D6
:10111000EE89FF896083E889F98980818370806422
:1011200080839FBF81E090E0DF91CF911F910F916D
:10113000FF90EF900895F62E0B8D10E00F5F1F4F7C
:101140000F731127E02E8C8D8E110CC00FB607FC8B
:10115000FACFE889F989808185FFF5CFCE010E9419
:101160005208F1CFEB8DEC0FFD2FF11DE35AFF4F2D
:10117000F0829FB7F8940B8FEA89FB8980818062A7
:10118000CFCFCF93DF93EC01888D8823B9F0AA8964
:10119000BB89E889F9898C9185FD03C0808186FD32
:1011A0000DC00FB607FCF7CF8C9185FFF2CF808181
:1011B00085FFEDCFCE010E945208E9CFDF91CF919C
:1011C0000895EF92FF920F931F93CF93DF93EC015B
:1011D000EC80FD806E157F050CF070C057FF04C0D9
:1011E000240F351F50E040E08E819F81FA01E20F0D
:1011F000F31F8E179F071CF49C01241B350B12163E
:1012000013060CF05BC0922F842F869586958695E9
:101210008E9DD0018F9DB00D11246A0F7B1FAF8D65
:10122000B8A1A60FB71F477049F188E0841B482F6B
:10123000682F70E0FB01E059FA4FE491281708F09D
:1012400063C0621B71092FEF30E002C0359527950E
:101250006A95E2F7E2230130110539F0B0F102306E
:10126000110561F58C91E82702C08C91E82BEC9375
:10127000941720F12C813D81A20FB31FE92FE41BAD
:10128000E83078F00230110521F58E2F9C91909571
:101290009C932C813D81A20FB31F88508830B0F7FA
:1012A000E770EE2359F0F0E0E859FA4FE49101308D
:1012B0001105F9F010F10230110519F1DF91CF910C
:1012C0001F910F91FF90EF900895E0958C91E82386
:1012D000CECF81E00115110509F480E081959E2FA4
:1012E0008C932C813D81A20FB31F98509830C0F78A
:1012F000D7CF8C91E82BEC93E1CFE0958C91E8234C
:10130000FACF8C91E827F7CF0130110509F4ADCF62
:10131000E0F20230110509F4A5CFAE0DBF1DAECF2E
:101320000F931F93CF93DF9377FF04C0260F371FD0
:1013300070E060E0DC011496CD91DC91FB01E20FDE
:10134000F31FCE17DF071CF49E01261B370B121666
:1013500013064CF5FA0157FD3796A3E0F595E7958E
:10136000AA95E1F7EC9FD001ED9FB00DFC9FB00D69
:1013700011246A0F7B1FDC015F96ED91FC91E60F53
:10138000F71F4770552781E090E001C0880F4A950C
:10139000EAF7482F0130110559F0A8F02E0F3F1F32
:1013A00002301105E1F0DF91CF911F910F91089567
:1013B0002E0F3F1FE217F307B1F38191DF01119761
:1013C000842B8C93F7CF80952E0F3F1FE217F307E6
:1013D00051F39191DF01119798239C93F7CFE21776
:1013E000F30709F38191DF01119784278C93F7CFDD
:1013F0000F931F93FA01DC0156964C915697423099
:10140000E9F04330A1F1413061F514964D915C91C2
:10141000DA01AE1BBF0BFD01E21BF30B77FD0BC026
:10142000DC0116964D915C916417750724F4AB01AD
:10143000BF010E9490091F910F91089514964D913C
:101440005C91DA01A61BB70BBD0161507109DC018B
:1014500016964D915C91DA01AE1BBF0BFD01E21BAC
:10146000F30B77FDE8CFAF010E94E108E4CF1696B9
:101470004D915C91DA01A61BB70BBD01615071095A
:10148000CDCF0F931F93FA01DC0156964C915697DE
:101490004230A9F0433091F1413019F514964D9145
:1014A0005C91DA01AE1BBF0BFD013197F7FD04C063
:1014B000AB01BF010E94E1081F910F91089514969E
:1014C0004D915C91DA01A61BB70BBD01DC011696AC
:1014D0004D915C91DA01AE1BBF0BFD013197621B90
:1014E000730BF7FDE9CFDC0116964D915C91E41783
:1014F000F50714F7AF010E949009DECF16964D91C3
:101500005C91DA01A61BB70BBD01621B730BCECF3A
:10151000FC0177FD64C080859185681779070CF020
:101520005EC057FD5CC082859385481759070CF053
:1015300056C086898230B1F0833029F1813041F480
:1015400084819581841B950BAB01BC0161507109AD
:101550002130310509F108F443C02230310509F486
:1015600063C0089584819581DC01A61BB70BBD0182
:101570006150710986819781DC01A41BB50BAD0117
:1015800041505109E5CF86819781861B970BBA019F
:10159000AC0141505109DCCFCA0157FD0796A3E0C9
:1015A00095958795AA95E1F7A481B5818A9F9001C9
:1015B0008B9F300D9A9F300D1124620F731F078C83
:1015C000F0A1E02DE60FF71F4770552721E030E02E
:1015D00001C0220F4A95EAF78081822B808308950B
:1015E000CA0157FD079633E0959587953A95E1F73F
:1015F000A481B5818A9F90018B9F300D9A9F300DF9
:101600001124620F731F078CF0A1E02DE60FF71F66
:101610004770552781E090E001C0880F4A95EAF7AE
:10162000809590818923DACFCA0157FD079623E080
:10163000959587952A95E1F7A481B5818A9F9001B8
:101640008B9F300D9A9F300D1124620F731F078CF2
:10165000F0A1E02DE60FF71F4770552721E030E09D
:1016600001C0220F4A95EAF780818227B7CF0895FB
:101670008EBD00000DB407FEFDCF8EB508958CBD64
:101680009DBD08950895FC016370668B84819581EA
:1016900026813781613039F0633029F09187808766
:1016A000338722870895318720879387828708951B
:1016B0002F923F924F925F926F927F928F929F9262
:1016C000AF92BF92CF92DF92EF92FF920F931F9350
:1016D000CF93DF93CDB7DEB76A970FB6F894DEBF2E
:1016E0000FBECDBF9A8F898F7A8369834A01D22E2C
:1016F00018870F833701BC2CDC0159962D913C9142
:101700005A972115310509F015C118968D919C91B4
:101710001997681779070CF0D7C11A968D919C918B
:10172000481759070CF0D0C14C2C512CB6E0CB9E79
:10173000600D711D11247C876B87161617060CF03F
:10174000C3C1EA2DF0E0FA87E98793E0EE0FFF1FAF
:101750009A95E1F7F88BEF87CF01840F951F181644
:1017600019060CF0B1C1A98DBA8D58968C918111D2
:1017700004C0BFEABD1508F4D394A98DBA8DED91CC
:10178000FC9111970284F385E02DCD010995B5E018
:10179000DB9EC0011124E981FA81FC83EB83312CAB
:1017A000212C9C0128593F4F388F2F8B4A2D50E018
:1017B0005E8B4D8BEF89F88DE20DF31D44919E8277
:1017C0008D82D12CC12C69817A81620D731D7A8B37
:1017D000698B842F90E09C8B8B8BE98DFA8DA08197
:1017E000B18140FF82C0F1E0BF126FC0AF126DC087
:1017F0001C96ED91FC912F813885A4014C0D5D1D47
:1018000069897A89898D9A8D0995EB89FC89F59585
:10181000E7954E2F5FEFC51AD50A6D817E818D89C0
:101820009E89680F791F7E836D8398E0C916D10465
:1018300081F6AFEF2A1A3A0AEB81FC81E40DF51D1F
:10184000FC83EB83F5E02F16310409F0B3CF2F8131
:10185000388526153705B9F0A98DBA8DED91FC9123
:10186000B1E0BB1257C0AB1255C069817A816B5F82
:101870007F4F0088F189E02D830128E030E0A4014A
:10188000898D9A8D0995A98DBA8DED91FC9111974D
:101890000688F789E02DCD016A960FB6F894DEBF71
:1018A0000FBECDBFDF91CF911F910F91FF90EF90B1
:1018B000DF90CF90BF90AF909F908F907F906F9070
:1018C0005F904F903F902F9009941E96ED91FC9160
:1018D000EF80F88409851A8592014D815E816B81C4
:1018E0007C81898D9A8D099590CF2F813885261519
:1018F000370509F48ACF31E0B31207C0A31205C03F
:101900001C96ED91FC91930178CF1E96ED91FC9180
:101910007301E0CF6B857C85641975090684F785B2
:10192000E02D73010F8518899201A401898D9A8D8C
:101930000995A9CFF9013496949132974591549124
:10194000D91AB7E0DB9E400D511D1124F9012591F4
:1019500034913C8B2B8BFA0125903490FA0132960E
:10196000749031963491398B3296649031964490CC
:1019700041E04C1518F04A1508F07FC0662D062C82
:10198000000C770B7C836B83842D042C000C990B4B
:101990009E838D83A98DBA8DED91FC911197028460
:1019A000F385E02DCD010995512CD12CC12CEA2DC8
:1019B000F0E0FA87E9872B2D30E03C872B87A401E4
:1019C000440D511D47FC5A95588F4F8B69817A8180
:1019D000660D711D67FC7A957E876D877989C716BC
:1019E00008F051CF2C2D30E04D815E81420F531F06
:1019F000A985BA854A9FC0014B9F900D5A9F900DB3
:101A00001124FC01E80DF91DF88BEF87852D612C61
:101A10004F89588D420F531F5E8B4D8B671408F012
:101A200050C044244394480E877041F4C10101968C
:101A3000EB89FC89E20DF31DD4901C01D7FE19C07F
:101A4000A98DBA8DED91FC91662D70E0B1E0BB12CD
:101A500019C0AB1217C02D853E85620F731F048419
:101A6000F585E02D2F8138854D895E89898D9A8D88
:101A70000995DD0C6394842DD1CF1E821D821C82BA
:101A80001B8288CF4B815C81640F751FAB85BC8541
:101A90006A9FC0016B9F900D7A9F900D1124698100
:101AA0007A81680F791F0684F785E02DEF80F8842E
:101AB00009851A859D014F855889898D9A8D0995CB
:101AC000D8CF570CC3948ACF6A960FB6F894DEBF6E
:101AD0000FBECDBFDF91CF911F910F91FF90EF907F
:101AE000DF90CF90BF90AF909F908F907F906F903E
:101AF0005F904F903F902F9008958F929F92AF925A
:101B0000CF92EF92FF920F931F93CF93DF93EC014D
:101B1000262F898D9A8D009709F051C06A30D1F433
:101B20001D861C868D8948E0849F900111248E8536
:101B30009F85820F931F9F878E8781E090E0DF91C2
:101B4000CF911F910F91FF90EF90CF90AF909F900A
:101B50008F9008956D3089F3CC88AD888F89882364
:101B6000C1F08C859D8536E0C39E800D911D1124AA
:101B7000488559854817590764F44E855F851D8649
:101B80001C8638E0A39EC0011124840F951F9F87F7
:101B90008E87EA88FB88088919894E855F856C8560
:101BA0007D85CE010E94580B2C898C859D8546E051
:101BB000249F800D911D11249D878C87BECF6A3094
:101BC00069F41D861C86FC013896E4912D898E856A
:101BD0009F85E29F800D911D1124ADCF6D3009F4DA
:101BE000ACCFFC0134963491631708F4A6CF32963B
:101BF000E491E61708F4A1CFFC0132968590949009
:101C0000462F431B342F47E0349F800C911C112436
:101C1000F401329634913196E4913323A9F1EE2305
:101C200099F1CC88F4013596E491AD884F8944232D
:101C300001F10E2E000CFF0BE30FF11DCE9EA00153
:101C4000CF9E500D11246C857D85460F571F6885EA
:101C50007985641775076CF44E855F851D861C8633
:101C6000FC013896E491AE9E400D511D11245F8712
:101C70004E87EA88FB88088919894E855F856C85BF
:101C80007D85CE010E94580BF4013496E4912C8995
:101C90008C859D85E29F800D911D11248DCF6F92C3
:101CA0007F928F929F92AF92BF92CF92DF92EF92EC
:101CB000FF920F931F93CF93DF93EC016B015A01B7
:101CC00039014801E881F9810284F385E02D099505
:101CD000E881F9810288F389E02D87019301A5014C
:101CE000B601CE010995A501480D591D4150510974
:101CF000E881F9810288F389E02D9301B601CE01D4
:101D00000995E881F9810088F189E02D9401A50108
:101D1000B601CE010995C60CD71CB60161507109F8
:101D2000E881F9810088F189E02D9401A501CE01B7
:101D30000995E881F9810688F789E02DCE01DF91C8
:101D4000CF911F910F91FF90EF90DF90CF90BF90B8
:101D5000AF909F908F907F906F9009946F927F9239
:101D60008F929F92AF92BF92CF92DF92EF92FF92AB
:101D70000F931F93CF93DF935C01EB016A0149013D
:101D800038018701DC01ED91FC916217730719F5A9
:101D9000641675062CF0962D872D3A01C92ED82E83
:101DA0009601261937092F5F3F4F048CF58DE02DE2
:101DB000A301BE01C5010995DF91CF911F910F913C
:101DC000FF90EF90DF90CF90BF90AF909F908F905B
:101DD0007F906F9008954615570591F426173707A1
:101DE00024F0892D4B01C22FD82F9E0128193909C3
:101DF0002F5F3F4F068CF78DE02DA601B401DACF9F
:101E00000284F385E02D0995D501ED91FC910488BC
:101E1000F589E02D83019401A601BE01C501099554
:101E2000D501ED91FC910688F789E02DC501DF9180
:101E3000CF911F910F91FF90EF90DF90CF90BF90C7
:101E4000AF909F908F907F906F900994EF92FF9248
:101E50000F931F93DC011A960D911C911B971896F6
:101E60002D913C911997ED91FC9100A0F1A1E02DED
:101E70007B0150E040E070E060E009951F910F9118
:101E8000FF90EF9008954F925F926F927F928F92A2
:101E90009F92AF92BF92CF92DF92EF92FF920F93F9
:101EA0001F93CF93DF936C012B015A013901480135
:101EB000DC01ED91FC910284F385E02D0995E201AE
:101EC000640C751CD601ED91FC91C615D7055CF428
:101ED0000088F189E02D87019401A501BE01C601AA
:101EE00009952196EFCF0688F789E02DC601DF918D
:101EF000CF911F910F91FF90EF90DF90CF90BF9007
:101F0000AF909F908F907F906F905F904F900994CB
:101F10008F929F92AF92BF92CF92DF92EF92FF92F9
:101F20000F931F93CF93DF93EC015B014A0169018B
:101F3000E881F9810284F385E02D099595012C0D46
:101F40003D1D21503109E881F9810488F589E02D92
:101F500078018401A401B501CE010995E881F981D8
:101F60000688F789E02DCE01DF91CF911F910F9167
:101F7000FF90EF90DF90CF90BF90AF909F908F90A9
:101F800009948F929F92AF92BF92CF92DF92EF927D
:101F9000FF920F931F93CF93DF93EC015B014A01F4
:101FA00069017801E881F9810284F385E02D0995C2
:101FB000C80CD91C860101501109E881F9810488F7
:101FC000F589E02D9501A401B501CE010995E881BF
:101FD000F9810688F789E02DCE01DF91CF911F911D
:101FE0000F91FF90EF90DF90CF90BF90AF909F90B8
:101FF0008F900994EF92FF920F931F93DC01ED9164
:10200000FC9100A0F1A1E02D09951F910F91FF9087
:10201000EF9008950F931F93DC01ED91FC91068CD6
:10202000F78DE02D09951F910F9108950F931F9340
:10203000DC01ED91FC91048CF58DE02D09951F914B
:102040000F910895DC01ED91FC910084F185E02D64
:1020500009943F924F925F926F927F928F929F92DC
:10206000AF92BF92CF92DF92EF92FF920F931F93A6
:10207000CF93DF935C017B014A016901390187E05D
:10208000680E711C93E0759467949A95E1F72B01A3
:10209000400E511E10E000E0312CD0E0C0E0CE0137
:1020A00087709927330C892B59F4FE0183E0F5954D
:1020B000E7958A95E1F7E00FF11FE80DF91D3490DF
:1020C00037FE0AC021E030E0A701B5016C0F7D1F8B
:1020D00083E593E00E9422102196CC16DD06F9F6E6
:1020E0008FEFE81AF80A060D171DE414F504A9F697
:1020F000DF91CF911F910F91FF90EF90DF90CF90E4
:10210000BF90AF909F908F907F906F905F904F9017
:102110003F9008952F923F924F925F926F927F92DD
:102120008F929F92AF92BF92CF92DF92EF92FF92E7
:102130000F931F93CF93DF9300D000D000D0CDB783
:10214000DEB73C016A013E832D83FC82EB8258019D
:10215000A41AB50AB7FE03C0B194A194B1088D804A
:102160009E80861A970A97FE03C0919481949108E5
:102170008A149B045CF0902F812F0D811E819D831A
:102180008E839C2D8D2D6B01692F782F0C151D05CD
:102190005CF09D818E817E836D83692F782F902FD7
:1021A000812F8601C92ED82E1601201A310A2B0143
:1021B0002D813E81421A530A57FE03C05194419427
:1021C0005108710137FE03C03FEFE31AF30AF5949B
:1021D000E7948D819E81861797075CF5A1E0B0E0BA
:1021E000BA83A983C016D1064CF1D301ED91FC91BD
:1021F0000484F585E02D2B813C81A8016D817E81D1
:102200008A149B041CF04D815E81B801C3010995BD
:10221000E418F508F7FE0AC02D813E8189819A8174
:10222000280F391F3E832D83E20CF31C0F5F1F4FD5
:10223000D9CF2FEF3FEF3A832983D4CF26960FB61D
:10224000F894DEBF0FBECDBFDF91CF911F910F91EC
:10225000FF90EF90DF90CF90BF90AF909F908F90C6
:102260007F906F905F904F903F902F9008950895CA
:1022700020912802260F3327331F21323105ECF439
:1022800020914C02FC0190E080E0243069F082E073
:102290000895A09128022191AC01485F5D4FA40FE1
:1022A000B52FB11D2C930196861798F380912802C3
:1022B000680F6093280280E0089581E008951092ED
:1022C0004C0281E080934E0210924D0261E082E167
:1022D0000E94AA0561E083E10E94AA05E9EBF0E013
:1022E00080818E7F808380818D7F808388E480934E
:1022F000B80085E48093BC000895CF93DF9391E00C
:10230000909307028823B9F0C091B800D091BA0029
:102310008091BC008A7B8093BC0060E082E10E94D7
:10232000AA0560E083E10E94AA050E945F11D09394
:10233000BA00C093B800DF91CF910895E091780280
:1023400080917702E81730F4F0E0EE51FE4F808183
:1023500090E008958FEF9FEF08959091780280911B
:1023600077022FEF3FEF981748F4E92FF0E0EE5196
:10237000FE4F208130E09F5F90937802C90108955D
:102380008091770290917802891B990B0895CF92E2
:10239000DF92EF92FF920F931F93CF93DF937C0115
:1023A000CB018A0120919602222389F0EB016B0177
:1023B000C40ED51ECC15DD0569F06991D701ED91EC
:1023C000FC910190F081E02DC7010995F3CF642FB6
:1023D0000E943811C801DF91CF911F910F91FF909A
:1023E000EF90DF90CF900895CF93DF931F92CDB7FA
:1023F000DEB76983209196022223F9F0209193029F
:10240000203258F021E030E0FC013383228390E059
:1024100080E00F90DF91CF91089580919402E82F92
:10242000F0E0EE53FE4F998190838F5F809394028A
:102430008093930281E090E0ECCF61E0CE010196C1
:102440000E943811F7CFCF92DF92EF92FF920F9355
:102450001F93CF93DF93D091930281E0D13208F0A4
:102460009CC0C09195020E9439066B017C0180914D
:102470004C0281116CC082E080934C0281E0809319
:102480004E028FEF80934B0210927002D0936F0236
:10249000A2ECB1E0EFE4F2E080E0D8138DC010923E
:1024A000710280917102CC0FC82BC0937102809190
:1024B0004D02813009F084C010924D020E9439060D
:1024C0006B017C01809171028093BB0080910302BB
:1024D00090910402A0910502B0910602892B8A2BEB
:1024E0008B2BA1F00E943906009103021091040287
:1024F00020910502309106026C197D098E099F0911
:10250000061717072807390708F442C08091BC0056
:1025100083FDD8CF85EC8093BC000E9439066B0107
:102520007C0180914C02823009F44CC080914B02B6
:102530008F3F09F469C080914B02803209F466C074
:1025400080914B02803309F463C084E026C08091FF
:10255000030290910402A0910502B0910602892B1A
:102560008A2B8B2B09F483CF0E943906009103023A
:102570001091040220910502309106026C197D0928
:102580008E099F09061717072807390708F06FCF2C
:10259000809102020E947D1185E0109294021092B7
:1025A000930210929602DF91CF911F910F91FF90AD
:1025B000EF90DF90CF9008959D9191938F5F6DCFB5
:1025C00085EEA9CF8091030290910402A0910502AB
:1025D000B0910602892B8A2B8B2B09F4A2CF0E9483
:1025E00039060091030210910402209105023091F6
:1025F00006026C197D098E099F090617170728071F
:10260000390708F08ECFC4CF80E0C7CF82E0C5CFB6
:1026100083E0C3CFEF92FF920F931F93CF93DF938B
:102620007C01C62F8091700390917103009709F48B
:1026300059C02091740331E03093960220939502A3
:102640001092940210929302DC01ED91FC910190A2
:10265000F081E02D60E009958701EE24E394F12CF0
:10266000D1E0C1508091700390917103CF3F91F1FF
:10267000B0E2EB16F104D8F00E94231280917003AF
:102680009091710320917403D09396022093950248
:102690001092940210929302DC01ED91FC91019052
:1026A000F081E02D60E00995EE24E394F12C809117
:1026B000700390917103F8016491DC01ED91FC913C
:1026C0000190F081E02D0995BFEFEB1AFB0A0F5F37
:1026D0001F4FC7CFDF91CF911F910F91FF90EF90C8
:1026E0000C942312E0918003F091810390818091FA
:1026F00086038095892380838701C15008F438C000
:10270000F801849120916E0330916F03232B29F0FF
:102710000E94380B0F5F1F4FF0CF28E030E040E8F9
:10272000E0917C03F0917D0390918403582F542312
:10273000D9F05081952B9083E0917E03F0917F0337
:10274000908150918503952B9083E0917E03F091C9
:102750007F035081909185039095952390834695B2
:1027600021503109E9F6D6CF508190959523E3CFDA
:10277000DF91CF911F910F91FF90EF9008951F93DC
:10278000CF93DF93EC018D8D9E8D009721F1162F55
:1027900029A131E030939602209395021092940281
:1027A00010929302DC01ED91FC910190F081E02DFB
:1027B00060E009958D8D9E8DDC01ED91FC9101907D
:1027C000F081E02D612F09958D8D9E8DDF91CF9148
:1027D0001F910C942312ADA5BEA59C918BA9809549
:1027E00089238C938B8D9C8D892B31F0862FDF91E3
:1027F000CF911F910C94380B28E030E080E8A9A518
:10280000BAA599A9462F4823C1F04C91942B9C93CB
:10281000ABA5BCA59C914AA9942B9C93ABA5BCA548
:102820004C919AA9909594239C93869521503109B7
:1028300031F7DF91CF911F9108954C91909594239A
:10284000E6CF1F93CF93DF93EC01162F8D8D9E8DD6
:10285000892BB1F12DA93EA94FA958AD60E074E2D2
:1028600084EF90E00E9478202051310941095109FC
:1028700056954795379527952093B80066EA11112C
:1028800067EACE010E94BF138D8D9E8D892B41F189
:1028900029AD3AAD4BAD5CAD60E074E284EF90E001
:1028A0000E947820205131094109510956954795D8
:1028B000379527952093B800DF91CF911F91089508
:1028C0008B8D9C8D892B21F08EAD9FAD0E943F0B8F
:1028D000EFA5F8A990818CA9809589238083CECF1C
:1028E000EFA5F8A980819CA9892B8083E5CF90E092
:1028F00080E008952091590330915A03C901079649
:1029000097FD079623E0959587952A95E1F7209105
:10291000570330915803829FA001839F500D929FCF
:10292000500D112470E060E0809172039091730368
:102930000C941C240E941724FB0101900020E9F74D
:102940003197AF01461B570BDC01ED91FC910280E2
:10295000F381E02D09948F929F92AF92BF92EF92F4
:10296000FF920F931F93CF93DF93CDB7DEB7A1975D
:102970000FB6F894DEBF0FBECDBF7C01FA01CB01CC
:1029800019A2223008F42AE08E010F5D1F4F822E1B
:10299000912CB12CA12CBF01A50194010E9478209B
:1029A000F901CA016A300CF5605DD8016E938D01A2
:1029B000232B242B252B79F790E080E0109721F032
:1029C000BD01C7010E949C14A1960FB6F894DEBF0A
:1029D0000FBECDBFDF91CF911F910F91FF90EF9070
:1029E000BF90AF909F908F900895695CDECFCF929B
:1029F000DF92EF92FF920F931F93CF93DF9377FFB6
:102A00001DC06A017B01EC016DE20E94CD078C01C3
:102A100044275527BA014C195D096E097F092AE040
:102A2000CE010E94AB14800F911FDF91CF911F91B7
:102A30000F91FF90EF90DF90CF9008952AE0DF9103
:102A4000CF911F910F91FF90EF90DF90CF900C945A
:102A5000AB142F923F924F925F926F927F928F9220
:102A60009F92AF92BF92CF92DF92EF92FF921F930D
:102A7000CF93DF93EC016A017B01722EAB019601CB
:102A8000CB01B6010E94E02267E571E0811126C00A
:102A900046015701E894B7F82FEF3FEF4FE75FE7A4
:102AA000C501B4010E94E02281110CC02FEF3FEF5D
:102AB0004FE75FE7C501B4010E9416216BE571E0A5
:102AC000181664F02FEF3FEF4FE75FE4C701B60140
:102AD0000E946E221816B4F46FE571E0CE01DF910A
:102AE000CF911F91FF90EF90DF90CF90BF90AF906C
:102AF0009F908F907F906F905F904F903F902F901E
:102B00000C949C142FEF3FEF4FE75FECC701B60129
:102B10000E94162187FDE0CF20E030E0A901C70127
:102B2000B6010E941621312C212C87FF09C06DE2CD
:102B3000CE010E94CD071C01F7FAF094F7F8F0944B
:102B400010E060E070E080E09FE3711641F020E06B
:102B500030E040E251E40E941B211F5FF6CFA70145
:102B600096010E94AA202B013C010E948D214B015D
:102B70005C012AE0BC01A401CE010E94AB147C01DF
:102B8000E20CF31C1123C1F1C501B4010E94BC2168
:102B90009B01AC01C301B2010E94A9204B015C0161
:102BA0006EE2CE010E94CD07E80EF91E115020F111
:102BB00020E030E040E251E4C501B4010E947322FC
:102BC0002B013C010E948D214B01B12CA12C2AE04C
:102BD000B501A401CE010E94AB14E80EF91EC50197
:102BE000B4010E94BC219B01AC01C301B2010E944F
:102BF000A9204B015C01DACFC701DF91CF911F9172
:102C0000FF90EF90DF90CF90BF90AF909F908F900C
:102C10007F906F905F904F903F902F9008950C940D
:102C20009C1485ED8093BC00809103029091040276
:102C3000A0910502B09106020796A11DB11D23E0E7
:102C4000B695A795979587952A95D1F72091BC00C1
:102C500024FD03C010924C0208954091030250914C
:102C600004026091050270910602452B462B472B0A
:102C700069F30097A105B10541F02AE22A95F1F721
:102C800000C00197A109B109E1CF809102020C9423
:102C90007D111F920F920FB60F9211242F933F9325
:102CA0008F939F93AF93BF9380918F0290919002E7
:102CB000A0919102B091920230918A0223E0230FF9
:102CC0002D3758F50196A11DB11D20938A028093DE
:102CD0008F0290939002A0939102B0939202809100
:102CE0008B0290918C02A0918D02B0918E02019680
:102CF000A11DB11D80938B0290938C02A0938D0235
:102D0000B0938E02BF91AF919F918F913F912F9180
:102D10000F900FBE0F901F90189526E8230F029674
:102D2000A11DB11DD2CF1F920F920FB60F92112489
:102D30002F933F934F935F936F937F938F939F93C3
:102D4000AF93BF93EF93FF9380917E0290917F02A8
:102D5000A0918002B0918102892B8A2B8B2BD1F11B
:102D600090917902E0917A02F0917B02808189272B
:102D7000808380917E0290917F02A0918002B09129
:102D80008102181619061A061B069CF480917E0211
:102D900090917F02A0918002B09181020197A109D8
:102DA000B10980937E0290937F02A0938002B0933A
:102DB0008102FF91EF91BF91AF919F918F917F9190
:102DC0006F915F914F913F912F910F900FBE0F9098
:102DD0001F901895809100010E94A107EACF1F92D1
:102DE0000F920FB60F9211242F933F934F935F933F
:102DF0006F937F938F939F93AF93BF93EF93FF93C3
:102E000087E992E00E945208FF91EF91BF91AF9144
:102E10009F918F917F916F915F914F913F912F91F2
:102E20000F900FBE0F901F9018951F920F920FB624
:102E30000F9211242F938F939F93EF93FF93E09121
:102E4000A702F091A8028081E091AD02F091AE025C
:102E500082FD1BC090818091B0028F5F8F732091A3
:102E6000B102821741F0E091B002F0E0E956FD4F67
:102E7000958F8093B002FF91EF919F918F912F9149
:102E80000F900FBE0F901F9018958081F4CF1F9266
:102E90000F920FB60F9211242F933F934F935F938E
:102EA0006F937F938F939F93AF93BF93EF93FF9312
:102EB0008091B900887F803609F44AC0F0F58832E5
:102EC00009F4A7C018F5803109F49BC0B8F4882331
:102ED00009F4F9C0883009F494C0FF91EF91BF91D3
:102EE000AF919F918F917F916F915F914F913F91A2
:102EF0002F910F900FBE0F901F901895883109F4F5
:102F000088C0803251F780934B0214C0803409F49A
:102F10009DC040F48033B9F38833F9F680934B02B7
:102F200085ECB0C0803509F485C0883509F496C0B9
:102F3000883499F60E941116D0CF883909F48CC0D4
:102F400038F5883729F050F4883611F0803729F6A3
:102F500083E080934C0210924A0257C0883809F4EB
:102F60007BC0803919F0803809F0B7CF80914A02D0
:102F7000803208F071C0E0914A0281E08E0F8093A8
:102F80004A028091BB00F0E0E65DFD4F80833DC0CA
:102F9000803B39F0E0F4803A09F479C0883A09F0CE
:102FA0009CCF84E080934C02109229021092280258
:102FB000E0917502F09176020995809128028111C5
:102FC0000FC081E0809328021092080209C0803C63
:102FD00009F4A6CF883C09F4A3CF883B09F07DCF44
:102FE000E091290281E08E0F80932902F0E0E85FF2
:102FF000FD4F80818093BB0090912902809128022F
:1030000029C0809171028093BB0085EC8093BC0045
:1030100064CF9091700280916F02981758F5E091FB
:10302000700281E08E0F80937002F0E0E15BFD4F53
:103030008081E9CFE091700281E08E0F8093700271
:103040008091BB00F0E0E15BFD4F808390917002C6
:1030500080916F029817C8F285E8D8CFE09170028E
:1030600081E08E0F809370028091BB00F0E0E15B05
:10307000FD4F808380914E0281115CCF81E080936F
:103080004D0284EA8093BC0010924C0226CF85EC5E
:103090008093BC0010924C0280914A02803230F43E
:1030A000E0914A02F0E0E65DFD4F108260914A0235
:1030B00070E0E0917302F09174028AE292E0099567
:1030C00010924A020ACF10924B0234CFE7E9F2E0A5
:1030D0001382128248EE53E060E070E0448355832F
:1030E000668377838BE091E09183808385EC90E029
:1030F0009587848784EC90E09787868780EC90E0C2
:10310000918B808B81EC90E0938B828B82EC90E0B2
:10311000958B848B86EC90E0978B868B118E128E2C
:10312000138E148EA7E4B3E013961C921E9212978E
:1031300014964D935D936D937C9317978DE191E079
:1031400011969C938E93E3E5F3E01382128220E8BC
:1031500030E03583248380E490E097838683318751
:10316000208793878287168A158614861786168687
:1031700081E0858B848B2FEF3FEF338B228B318B5C
:10318000208B878B108E128E118E8FE291E09183AF
:103190008083148E138EB68FA58F10A2178E8FEF9B
:1031A00084A385A386A387A380A780E89AE1A6E0ED
:1031B000B0E085AB96ABA7ABB0AF80EA96E8A1E0F4
:1031C000B0E081AF92AFA3AFB4AF80E586AF17AEEA
:1031D000A4E3B3E08CE015968C93159786E11696E0
:1031E0008C931697E1E8FAE0E4911796EC93179721
:1031F000EDE6FAE0E4911896EC93189740E85EE368
:1032000060E070E01D964D935D936D937C935097B5
:103210000895CF93DF93CDB7DEB729970FB6F89413
:10322000DEBF0FBECDBF789484B5826084BD84B507
:10323000816084BD85B5826085BD85B5816085BDB1
:1032400080916E00816080936E0010928100809169
:1032500081008260809381008091810081608093F1
:103260008100809180008160809380008091B10016
:1032700084608093B1008091B00081608093B00041
:1032800080917A00846080937A0080917A008260D5
:1032900080937A0080917A00816080937A00809197
:1032A0007A00806880937A001092C100E091A702B2
:1032B000F091A80282E08083E091A302F091A40241
:1032C0001082E091A502F091A6028FEC808310920B
:1032D000AF02E091AB02F091AC0286E08083E09116
:1032E000A902F091AA02808180618083E091A90205
:1032F000F091AA02808188608083E091A902F09118
:10330000AA02808180688083E091A902F091AA02DC
:1033100080818F7D808361E08BE00E94F60561E013
:103320008DE00E94F60562E0809139030E94F60567
:103330002FB7F89480918F0290919002A091910202
:10334000B09192022FBF805D9740A109B10980938F
:103350003D0390933E03A0933F03B093400387E364
:10336000809346038091720390917303892B11F52A
:103370002091590330915A03C901079697FD07968A
:10338000B3E095958795BA95E1F720915703309171
:103390005803AC01429FC001439F900D529F900D76
:1033A00011240E94F2229093730380937203892B5D
:1033B00009F471C20E947A142091590330915A0382
:1033C0008091570390915803B901213231050CF4D3
:1033D00035C16054710977FF02C06F5F7F4F7595EB
:1033E00067958255910997FD019600E410E022E56A
:1033F00030E04AE657E0959587950E94291082E0D3
:10340000809375038091700390917103892B09F467
:1034100028C18CE380937403109278021092770293
:1034200010929402109293020E945F118FE997E02C
:10343000909376028093750280EA97E090937402ED
:103440008093730280917B0387FD1EC061E00E9420
:10345000F60561E080917B030E94AA0561E070E0BF
:1034600080E090E00E945E0660E080917B030E9415
:10347000AA056AE070E080E090E00E945E0661E0EC
:1034800080917B030E94AA05809170039091710343
:10349000892B09F4A7C120918803309189034091B9
:1034A0008A0350918B0360E074E284EF90E00E9405
:1034B0007820205131094109510956954795379592
:1034C00027952093B80064E086E895E00E940A13EF
:1034D00060915903615083E593E00E94BF1364E05B
:1034E00082E895E00E940A138091750360E18130C3
:1034F00009F064E183E593E00E94BF1364E08EE786
:1035000095E00E940A138FE88093900380915703FF
:10351000909158038038910509F07DC1809159033D
:1035200090915A038034910509F09FC180917503F1
:10353000813009F06EC18FE98093900392E1998305
:103540006AED83E593E00E94BF13698183E593E010
:103550000E94BF1361E883E593E00E94BF1360916E
:10356000900383E593E00E94BF1369ED83E593E048
:103570000E94BF138091750362E2813009F061EF10
:1035800083E593E00E94BF1366E088E795E00E9420
:103590000A138091700390917103892B09F471C112
:1035A00020918C0330918D0340918E0350918F03B5
:1035B00060E074E284EF90E00E94782020513109AD
:1035C0004109510956954795379527952093B8009D
:1035D0000E947A1481E090E09093660380936503E3
:1035E000909364038093630363E671E087E992E05C
:1035F0000E949C1465E871E087E992E00E949C14A7
:1036000044244A94542C320192E8292E9AE0392E0F
:103610000E949006882359F080913A038B3038F04D
:103620008D3008F439C18551823008F466C1812C8F
:10363000912C80ECA82E8FE7B82E4CC160527109F6
:1036400077FF02C06F5F7F4F75956795835791092C
:1036500097FD019600E210E023E730E04AE855E0EC
:10366000CACE61E0809179030E94F60561E0809105
:103670007A030E94F60580917903082E000C990BBD
:10368000FC01EF59F54FE491F0E0EE0FFF1FE75C0E
:10369000F54F259134913093810320938003FC01F1
:1036A000EB58F54FE491E093860380917A03082E5E
:1036B000000C990BFC01EF59F54FE491F0E0EE0F8F
:1036C000FF1FE75CF54FA591B491B0938303A093DE
:1036D0008203FC01EB58F54FE491E09387038C9152
:1036E000E82BEC9380916E0390916F03892B09F482
:1036F00036C05FB75983F89480917202811127C058
:10370000EBE6FAE08491EFE7FAE09491E82FF0E03D
:10371000EE0FFF1FE15DF54FA591B491EC91E92308
:1037200021F461E08AE00E94AA0561E08AE00E943B
:10373000F6058CB580618CBD8CB580648CBD61E074
:103740008DE00E94F60561E08BE00E94F605809115
:1037500072028F5F8093720289818FBF73CE61E0A6
:10376000809177030E94F60561E0809178030E94C2
:10377000F60580917703082E000C990BFC01EF5998
:10378000F54FE491F0E0EE0FFF1FE75CF54F259158
:10379000349130937D0320937C03FC01EB58F54F6B
:1037A000E491E093840380917803082E000C990B38
:1037B000FC01EF59F54FE491F0E0EE0FFF1FE75CDD
:1037C000F54FA591B491B0937F03A0937E03FC01C4
:1037D000EB58F54FE491E09385038C91E095E82355
:1037E000EC9330CE80916E0390916F03892B31F072
:1037F00080919103909192030E943F0BE09182038C
:10380000F091830390818091870380958923808341
:103810005ACE8FEC91CE8036910591F48091590368
:1038200090915A03409721F580917503813031F4CE
:1038300080E180939003A2E0A98382CE8FEAF9CF42
:1038400080349105C1F48091590390915A03809777
:10385000A9F480917503813031F480E18093900365
:10386000B2E1B9836DCE8FECF9CFE2E0E98368CEA7
:10387000F2E0F98365CE22E0298362CE32E039831B
:103880005FCEE0918203F091830380819091870362
:10389000892B80839DCEFFCF6091350370E090E04F
:1038A00080E00E94BE212DEC3CEC4CEC5DE30E94DC
:1038B00073226B017C016091340370E090E080E042
:1038C0000E94BE219B01AC01C701B6010E94AA2043
:1038D0004B015C010E949006882341F080913A03DD
:1038E0008C3009F4D5C0D8F48B30C1F1C12CD12C67
:1038F00010ECE12E1FE7F12E5DC060913403709152
:10390000350376276727762790E080E00E94BC2168
:103910002DEC3CEC4CEC5DE30E947322D9CF855139
:10392000823020F7A0913603A9836A2F70E0762FAA
:10393000662766277F7780913703682B90E080E0C9
:103940000E94BC212DEC3CEC4CEC5DE30E94732208
:103950006B017C01B981B7FF2DC0BCC060913603FB
:1039600070E090E080E00E94BC216B017C014091FE
:103970003703498347FF0AC0AC019B0160E070E058
:1039800080E89FEB0E94A9206B017C0159815F7048
:10399000652F70E090E080E00E94BE212DEC3CECB1
:1039A0004CEC5DE30E947322A70196010E94AA20BD
:1039B0006B017C018EE00E94270620E137E2DC01EA
:1039C0000E94E5222FEF33E040E050E00E945920B2
:1039D000DA01C901885E9C48AE4FBF4F89839A8344
:1039E000AB83BC838FE00E94270628EE33E0DC0126
:1039F0000E94E5222FEF33E040E050E00E94592082
:103A00002D833E834F83588720E030E048E452E422
:103A1000C701B6010E946E2218165CF020E030E06B
:103A200040E752E4C501B4010E946E2218160CF062
:103A300085C261E08BE00E94AA05809100018D3073
:103A400009F04DC0EAE2FAE0149117FDEAC061E026
:103A50008DE00E94F605112309F4B3C0123009F07D
:103A6000C4C08091B100887F83608093B10089EFEA
:103A70008093B30040927E0250927F026092800257
:103A80007092810280917000826080937000C9C042
:103A9000809136038983682F70E090E080E00E9477
:103AA000BC216B017C01609137036F7070E090E086
:103AB00080E00E94BE212DEC3CEC4CEC5DE30E94CA
:103AC0007322A70196010E94AA206B017C019981B3
:103AD00097FF70CFF7FAF094F7F8F0946BCF8F3F21
:103AE00009F09FC08DE080930001EAE2FAE01491B2
:103AF0001F3F09F496C0113021F150F0123009F443
:103B00003EC017FD8EC061E08DE00E94F605A6CF95
:103B100014BC15BC84B5826084BD85B5816085BD4B
:103B2000EEE6FAE08491E82FF0E0EE0FFF1FE75C8D
:103B3000F54F85919491F101849180937D0210E07D
:103B400086CF109280001092810080918100886061
:103B50008093810080918100816080938100EEE6F6
:103B6000FAE08491E82FF0E0EE0FFF1FE75CF54FDD
:103B700085919491F101849180937C0268CF109299
:103B8000B0001092B1008091B00082608093B000CC
:103B90008091B10081608093B100EEE6FAE08491FB
:103BA000E82FF0E0EE0FFF1FE75CF54F8591949151
:103BB00090937B0280937A02F10184918093790241
:103BC00046CF85B5887F836085BD8CE787BD4092F1
:103BD00086025092870260928802709289028091D8
:103BE0006E00826080936E001CC0113009F09EC18F
:103BF00080918100887F8160809381002FE33FE185
:103C00003093890020938800409282025092830270
:103C1000609284027092850280916F00826080932E
:103C20006F0022E0B701A60187E992E00E94291502
:103C300068E871E087E992E00E940F1622E0B50182
:103C4000A40187E992E00E94291568E871E087E9FC
:103C500092E00E940F1649815A816B817C8187E92D
:103C600092E00E94F71468E871E087E992E00E9410
:103C70000F164D815E816F81788587E992E00E9401
:103C8000F71465E871E087E992E00E949C140E94B5
:103C90007A1481E080936703809368031092600335
:103CA00010925F0310926203109261036AE871E060
:103CB00083E593E00E940F1621E0B701A60183E59A
:103CC00093E00E94291561E971E083E593E00E9489
:103CD0000F161092600310925F034CE050E0509377
:103CE00062034093610364E971E083E593E00E941D
:103CF0000F1621E0B501A40183E593E00E94291588
:103D00006AE971E083E593E00E940F161092600368
:103D100010925F0388E190E09093620380936103C7
:103D20006DE971E083E593E00E940F1649815A81A5
:103D30006B817C8183E593E00E94F71464EA71E073
:103D400083E593E00E940F161092600310925F03C8
:103D5000A4E2B0E0B0936203A093610368EA71E06B
:103D600083E593E00E940F164D815E816F81788517
:103D700083E593E00E94F7146EEA71E083E593E037
:103D80000E940F1620E030E048E452E4C701B6017B
:103D90000E946E22181654F020E030E040E752E412
:103DA000C501B4010E946E22181684F410926003BB
:103DB00010925F03E2E3F0E0F0936203E0936103AB
:103DC00063EB71E083E593E00E940F16809170032E
:103DD00090917103892B09F4B9C020918803309127
:103DE000890340918A0350918B0360E074E284EF71
:103DF00090E00E94782020513109410951095695DF
:103E00004795379527952093B80064E08BE29AE0B8
:103E10000E940A13809157039091580380349105B2
:103E200009F0ABC060E283E593E00E94BF136091AC
:103E30005703615E83E593E00E94BF13209159030D
:103E400030915A03C901079697FD079623E095958F
:103E500087952A95E1F72091570330915803829F67
:103E60007001839FF00C929FF00C1124209172033B
:103E7000309173033A832983809170039091710389
:103E8000E20EF31E009709F4B5C02091740331E0EF
:103E9000309396022093950210929402109293020E
:103EA000DC01ED91FC910190F081E02D60E4099539
:103EB00001E010E0DD24D3948091700390917103B0
:103EC000E981FA81EE15FF0509F460C000321105A1
:103ED000D0F00E9423128091700390917103209181
:103EE0007403D0929602209395021092940210923D
:103EF0009302DC01ED91FC910190F081E02D60E4F2
:103F0000099501E010E08091700390917103E981BF
:103F1000FA816191FA83E983DC01ED91FC910190D2
:103F2000F081E02D09950F5F1F4FC6CF123021F0B1
:103F3000111177CE8FE34ACE8FE39ACD60E08BE00C
:103F40000E94AA058DE00E94A1076BCE80916E03AE
:103F500090916F03892B31F080919103909192039E
:103F60000E943F0BE0918203F09183039081809146
:103F7000870380958923808348CF60E083E593E0C1
:103F80000E94BF1360915703615054CF0E942312C7
:103F90008091700390917103892B09F471C0209175
:103FA0008C0330918D0340918E0350918F0360E01C
:103FB00074E284EF90E00E94782020513109410999
:103FC000510956954795379527952093B80064E693
:103FD00070E080E090E00E945E0680E090E0892B37
:103FE00009F416CB0E943E08882309F40DCB0E94E9
:103FF00000000ACBE0918003F091810390818091D1
:104000008603892B8083E981FA81EE16FF0609F485
:10401000BFCF8191FA83E98320916E0330916F03C2
:10402000232B19F00E94380BEECF28E030E090E807
:10403000E0917C03F0917D0340918403592F582334
:10404000D9F05081452B4083E0917E03F0917F03AE
:10405000508140918503452B4083E0917E03F09190
:104060007F03508140918503409545234083969579
:1040700021503109E9F6C7CF508140954523E3CF60
:10408000E0918203F0918303908180918703892BD3
:1040900080839DCF8FE291E09093540380935303EC
:1040A0008091720390917303009711F00C948E230A
:1040B0000895052E97FB1EF400940E94702057FD72
:1040C00007D00E94782007FC03D04EF40C94702097
:1040D00050954095309521953F4F4F4F5F4F089534
:1040E00090958095709561957F4F8F4F9F4F089564
:1040F000A1E21A2EAA1BBB1BFD010DC0AA1FBB1FEC
:10410000EE1FFF1FA217B307E407F50720F0A21B5D
:10411000B30BE40BF50B661F771F881F991F1A94CA
:1041200069F760957095809590959B01AC01BD01F4
:10413000CF010895A29FB001B39FC001A39F700D4E
:10414000811D1124911DB29F700D811D1124911D9F
:1041500008955058BB27AA270E94C1200C943422EE
:104160000E94262238F00E942D2220F039F49F3F31
:1041700019F426F40C9423220EF4E095E7FB0C943A
:104180001D22E92F0E94452258F3BA1762077307D0
:104190008407950720F079F4A6F50C9467220EF4B5
:1041A000E0950B2EBA2FA02D0B01B90190010C0147
:1041B000CA01A0011124FF27591B99F0593F50F45F
:1041C000503E68F11A16F040A22F232F342F4427B7
:1041D000585FF3CF469537952795A795F0405395AF
:1041E000C9F77EF41F16BA0B620B730B840BBAF07F
:1041F0009150A1F0FF0FBB1F661F771F881FC2F7EA
:104200000EC0BA0F621F731F841F48F487957795FD
:104210006795B795F7959E3F08F0B0CF9395880FB7
:1042200008F09927EE0F9795879508950E94F92138
:1042300008F481E008950E942F210C9434220E94FA
:104240002D2258F00E94262240F029F45F3F29F0E9
:104250000C941D2251110C9468220C9423220E946C
:10426000452268F39923B1F3552391F3951B550B20
:10427000BB27AA2762177307840738F09F5F5F4F39
:10428000220F331F441FAA1FA9F335D00E2E3AF078
:10429000E0E832D091505040E695001CCAF72BD090
:1042A000FE2F29D0660F771F881FBB1F26173707E1
:1042B0004807AB07B0E809F0BB0B802DBF01FF2713
:1042C00093585F4F3AF09E3F510578F00C941D22B1
:1042D0000C9468225F3FE4F3983ED4F3869577957B
:1042E0006795B795F7959F5FC9F7880F911D9695CC
:1042F000879597F90895E1E0660F771F881FBB1F28
:10430000621773078407BA0720F0621B730B840BD4
:10431000BA0BEE1F88F7E09508950E944D2288F0B1
:104320009F5798F0B92F9927B751B0F0E1F0660F79
:10433000771F881F991F1AF0BA95C9F714C0B130BA
:1043400091F00E946722B1E008950C946722672FD4
:10435000782F8827B85F39F0B93FCCF386957795E9
:104360006795B395D9F73EF49095809570956195D2
:104370007F4F8F4F9F4F0895E89409C097FB3EF4FD
:1043800090958095709561957F4F8F4F9F4F9923A2
:10439000A9F0F92F96E9BB279395F6958795779520
:1043A0006795B795F111F8CFFAF4BB0F11F460FFE0
:1043B0001BC06F5F7F4F8F4F9F4F16C0882311F038
:1043C00096E911C0772321F09EE8872F762F05C04C
:1043D000662371F096E8862F70E060E02AF09A95E7
:1043E000660F771F881FDAF7880F9695879597F9DC
:1043F0000895990F0008550FAA0BE0E8FEEF161676
:104400001706E807F907C0F012161306E407F507C8
:1044100098F0621B730B840B950B39F40A2661F03C
:10442000232B242B252B21F408950A2609F4A140DF
:10443000A6958FEF811D811D089597F99F6780E8EC
:1044400070E060E008959FEF80EC089500240A94E6
:104450001616170618060906089500240A9412165F
:104460001306140605060895092E0394000C11F492
:10447000882352F0BB0F40F4BF2B11F460FF04C03F
:104480006F5F7F4F8F4F9F4F089557FD9058440F98
:10449000551F59F05F3F71F04795880F97FB991FA3
:1044A00061F09F3F79F08795089512161306140660
:1044B000551FF2CF4695F1DF08C0161617061806ED
:1044C000991FF1CF86957105610508940895E894C8
:1044D000BB2766277727CB0197F908950E94F9211A
:1044E00008F48FEF08950E9486220C9434220E94D3
:1044F000262238F00E942D2220F0952311F00C94F2
:104500001D220C94232211240C9468220E9445221F
:1045100070F3959FC1F3950F50E0551F629FF00116
:10452000729FBB27F00DB11D639FAA27F00DB11D2F
:10453000AA1F649F6627B00DA11D661F829F2227B8
:10454000B00DA11D621F739FB00DA11D621F839F3F
:10455000A00D611D221F749F3327A00D611D231F15
:10456000849F600D211D822F762F6A2F11249F5763
:1045700050409AF0F1F088234AF0EE0FFF1FBB1F66
:10458000661F771F881F91505040A9F79E3F510525
:1045900080F00C941D220C9468225F3FE4F3983E57
:1045A000D4F3869577956795B795F795E7959F5FCF
:1045B000C1F7FE2B880F911D9695879597F9089561
:1045C0000E94F921880B990B08950E949A20B7FF49
:1045D0000895821B930B0895EE0FFF1F0590F49131
:1045E000E02D09940F931F93CF93DF9382309105B1
:1045F00010F482E090E0E0919503F091960330E0B2
:1046000020E0B0E0A0E0309799F42115310509F4DD
:104610004AC0281B390B24303105D8F58A819B818B
:104620006115710589F1FB0193838283FE0111C03D
:10463000408151810281138148175907E0F04817E2
:10464000590799F4109761F012960C9312971396EC
:104650001C933296CF01DF91CF911F910F91089556
:104660000093950310939603F4CF2115310551F073
:104670004217530738F0A901DB019A01BD01DF01A0
:10468000F801C1CFEF01F9CF909396038093950382
:10469000CDCFFE01E20FF31F819391932250310998
:1046A00039832883D7CF2091930330919403232B10
:1046B00041F420910301309104013093940320933D
:1046C000930320910101309102012115310541F43C
:1046D0002DB73EB74091050150910601241B350BC3
:1046E000E0919303F0919403E217F307A0F42E1BDB
:1046F0003F0B2817390778F0AC014E5F5F4F241746
:10470000350748F04E0F5F1F509394034093930377
:10471000819391939FCFF0E0E0E09CCFCF93DF9324
:104720000097E9F0FC01329713821282A091950361
:10473000B0919603ED0130E020E01097A1F42081C4
:104740003181820F931F2091930330919403281796
:10475000390709F061C0F0939403E0939303DF916C
:10476000CF910895EA01CE17DF07E8F54A815B8112
:104770009E0141155105B1F7E901FB83EA83499197
:104780005991C40FD51FEC17FD0761F48081918109
:104790000296840F951FE901998388838281938112
:1047A0009B838A83F0E0E0E012968D919C911397B1
:1047B0000097B9F52D913C911197CD010296820F8A
:1047C000931F20919303309194032817390739F6EA
:1047D000309751F51092960310929503B09394037D
:1047E000A0939303BCCFD383C28340815181840FB4
:1047F000951FC817D90761F44E5F5F4F8881998173
:10480000480F591F518340838A819B819383828300
:104810002115310509F0B0CFF0939603E09395038D
:104820009ECFFD01DC01C0CF13821282D7CF81E081
:1048300090E0F8940C942324DC0101C06D93415066
:104840005040E0F7089515E0C6E4D5E004C0FE014D
:104850000E94EC222196C734D107C9F7F894FFCF04
:10486000FF000097038000000000007408D40701D7
:1048700008C10832081008240800000000F411C71D
:104880001177147105C011AD119E11000000007D5B
:104890000DD40777143711880A71052210FA0F1604
:1048A000100A108A107105430B2114F809410A43BC
:1048B0000F260FAE0E4F0E6E616E00696E66006FB2
:1048C00076660074656D70657261747572652C68CA
:1048D000756D69646974652C7072657373696F6E48
:1048E0002C616972000D0A002C0054656D703A202D
:1048F0000020430048756D3A200020250050726565
:10490000733A2000205061004169723A2000207003
:10491000706D0021212120414C4552544520212118
:02492000210074
:107E0000112484B714BE81FFF0D085E080938100F7
:107E100082E08093C00088E18093C10086E0809377
:107E2000C20080E18093C4008EE0C9D0259A86E02C
:107E300020E33CEF91E0309385002093840096BBD3
:107E4000B09BFECF1D9AA8958150A9F7CC24DD24C4
:107E500088248394B5E0AB2EA1E19A2EF3E0BF2EE7
:107E6000A2D0813461F49FD0082FAFD0023811F036
:107E7000013811F484E001C083E08DD089C08234E0
:107E800011F484E103C0853419F485E0A6D080C0E4
:107E9000853579F488D0E82EFF2485D0082F10E0AE
:107EA000102F00270E291F29000F111F8ED06801E7
:107EB0006FC0863521F484E090D080E0DECF843638
:107EC00009F040C070D06FD0082F6DD080E0C81688
:107ED00080E7D80618F4F601B7BEE895C0E0D1E017
:107EE00062D089930C17E1F7F0E0CF16F0E7DF06D8
:107EF00018F0F601B7BEE89568D007B600FCFDCFD4
:107F0000A601A0E0B1E02C9130E011968C91119780
:107F100090E0982F8827822B932B1296FA010C0160
:107F200087BEE89511244E5F5F4FF1E0A038BF0790
:107F300051F7F601A7BEE89507B600FCFDCF97BE46
:107F4000E89526C08437B1F42ED02DD0F82E2BD052
:107F50003CD0F601EF2C8F010F5F1F4F84911BD097
:107F6000EA94F801C1F70894C11CD11CFA94CF0C13
:107F7000D11C0EC0853739F428D08EE10CD085E9AC
:107F80000AD08FE07ACF813511F488E018D01DD067
:107F900080E101D065CF982F8091C00085FFFCCF94
:107FA0009093C60008958091C00087FFFCCF809118
:107FB000C00084FD01C0A8958091C6000895E0E648
:107FC000F0E098E1908380830895EDDF803219F02E
:107FD00088E0F5DFFFCF84E1DECF1F93182FE3DFCA
:107FE0001150E9F7F2DF1F91089580E0E8DFEE27F6
:047FF000FF270994CA
:027FFE00040479
:00000001FF
